:020000040000FA
:10000000A52083163830810083128101E420253039
:100010002C21822001088C00E42031302C21D820B2
:100020000C0816203C302C217E2005288C009220C4
:100030001008031D1F280C089220162123282121B7
:100040000C0892201D21080082072034203420341F
:100050002034503475346C34733465342034203497
:100060000034203420342034203453345534453483
:100070004C345434453400342034503475346C34AA
:1000800073342E342B345234653462342E3420349D
:100090002034203400340000000000000000000084
:1000A000000008000000A4305E28000040305E28F8
:1000B0001F305E2800000E305E2805308D008D0B4D
:1000C0005F280800C83071286430712832307128E8
:1000D000143071280A3071280530712802307128D7
:1000E00001308E00F9308D0000008D0B74288E0BCE
:1000F00072280800C8308528643085283230852869
:10010000143085280A30852805308F0064308E0031
:10011000F9308D0000008D0B8A288E0B88288F0BFC
:10012000862808009001910192000A301202031CF7
:10013000A2289200910A0A301102031C952891010D
:10014000900A9528110E1207080083160510051154
:100150008510831285100511051068203030BD20F0
:100160006C203030BD2055203030BD202030BD20E7
:10017000E620E420E220D4200800F03993000608AD
:100180000F3993048316060895000F3086058312F5
:10019000051C6E205A2013088600051505118316CC
:1001A00015088600831208000630E7288030E7280B
:1001B000C030E7288038E728C038E7280830E7282B
:1001C0000E30E7280C30E7280130E72828300510EA
:1001D000EB280514F3209400BD20140EBD20051C4F
:1001E0006E205A2008009300F13C031DFA28EE30DF
:1001F000930007291308D13C031D0129EE30930019
:1002000007291308BA3C031D0729DF3093001308A0
:100210000800103010290130102902301029033055
:1002200096002030E920960B112908009700F0393C
:10023000031D1E292030E92020299700170E2121B7
:1002400017080F399600093C031C29291608303E6F
:100250002B291608373EE928980024309802980385
:10026000180824209900990803193929E920980AC7
:100270003029080098002430980298039A01E4205D
:1002800010301A02031D4929622062200F309802A3
:100290003E29180824209900990803195329E920B8
:0802A0009A0A980A402908009F
:02400E00F13F80
:00000001FF
