:020000040000FA
:100000001B208316051683128C010D20051E092066
:100010000628BF20051A14281520073050200C0888
:10002000E9208C20051E122808008C0A0C08103CC0
:10003000031C8C010800831605100511851083121E
:10004000851005110510BF2030303320C32030301B
:100050003320AC2030303320203033205C205A2035
:1000600058204A200800F0398D0006080F398D0409
:10007000831606088F000F3086058312051CC520E5
:10008000B1200D0886000515051183160F0886009E
:100090008312080006305D2880305D28C0305D285E
:1000A00080385D28C0385D2808305D280E305D2816
:1000B0000C305D2801305D282830051061280514BA
:1000C00069208E0033200E0E3320051CC520B12080
:1000D00008008D00F13C031D7028EE308D007D2856
:1000E0000D08D13C031D7728EE308D007D280D08CA
:1000F000BA3C031D7D28DF308D000D08080010304C
:10010000862801308628023086280330900020306F
:100110005F20900B872808009100F039031D942878
:1001200020305F2096289100110E972011080F397A
:100130009000093C031C9F281008303EA12810089D
:10014000373E5F28000000000000000000000000B3
:1001500008000000A430B52800004030B5281F304A
:10016000B52800000E30B52805309200920BB62855
:100170000800C830C8286430C8283230C828143075
:10018000C8280A30C8280530C8280230C8280130DD
:100190009300F93092000000920BCB28930BC928F2
:1001A0000800C830DC286430DC283230DC28143009
:1001B000DC280A30DC280530940064309300F930E4
:1001C00092000000920BE128930BDF28940BDD28AE
:1001D00008009501960197000A301702031CF928C0
:1001E0009700960A0A301602031CEC289601950A1D
:0801F000EC28160E17070800A9
:02400E00F13F80
:00000001FF
