:020000040000FA
:1000000083168601831250300920860003280F3999
:10001000303E8C00203C031900340C08D13C0319FD
:1000200055340C08BA3C031963340C085A3C031CC1
:1000300080342B300C02031C803482074634043495
:100040004034803400343F3406345B344F346634FB
:100050006D347D3407347F34673441348834003460
:10006000483400340034003477347C3439345E341E
:10007000793471346F34763419341E347A34383428
:10008000373454343F347334673450346D347834F7
:0C0090001C343E341D3470346E3449348E
:02400E00F13F80
:00000001FF
