:020000040000FA
:1000000012202A209E303820403038200A20382004
:100010007C20062801308C07031812280C08FA3CB3
:100020000318142896308C000C080800831605125B
:100030008312051208008316051683120800831622
:100040008511831285110800831685158312851D7D
:10005000272808001B2024206720162067201F2047
:10006000672008001620242067201B206720080036
:100070008E0008308D008E0D031840281620412870
:100080001B20242067201F2067208D0B3B281B206E
:10009000242067201F206720080008308D001B20C7
:1000A00024200310051A03148E0D1F2067208D0BCA
:1000B00050280F1C1620242067201F2067200E08C0
:1000C0000800000000000000000000000000080020
:1000D0000000A43074280000403074281F307428B9
:1000E00000000E30742805309000900B7528080031
:1000F000C830872864308728323087281430872812
:100100000A3087280530872802308728013091007F
:10011000F93090000000900B8A28910B8828080085
:10012000C8309B2864309B2832309B2814309B2891
:100130000A309B280530920064309100F93090001D
:100140000000900BA028910B9E28920B9C28080081
:02400E00F13F80
:00000001FF
