:020000040000FA
:02000000D728FF
:08000800ED2882074C34753429
:100010006E346534733420342034203400344D344D
:1000200061347234743465347334203420340034D1
:100030004D3469346534723463342E3420342034C2
:1000400000344A347534653476346534733420347E
:100050002034003456346934653472346E34653477
:100060007334203400345334613462346134643482
:100070006F3420342034003444346F346D346934A8
:100080006E3467346F3420340034203420344534E7
:100090006E34653472346F34203400342034463486
:1000A000653462347234653472346F340034203411
:1000B00020344D34613472347A346F342034003457
:1000C0002034203441346234723469346C34203446
:1000D0000034203420344D34613479346F3420348A
:1000E00020340034203420344A3475346E3469347A
:1000F0006F3420340034203420344A3475346C3466
:1001000069346F34203400342034413467346F3420
:10011000733474346F3420340034533465347034A1
:100120007434693465346D342E3400344F346334A0
:1001300074347534623472346534203400344E348F
:100140006F347634693465346D3462342E3400345F
:10015000443469346334693465346D3462342E3424
:10016000003420342034203420342034203420340F
:10017000203400348207000006340F341834213450
:100180002A3433343C348207000045344E3457342B
:100190006034693472347B3484348D340000000060
:1001A000000000000000000096349F34A834932221
:1001B00083168113861706170614011383128E0106
:1001C0000A221322981FE9282E2298308B005721EB
:1001D000EB2898308B006300EB288B18F8200B1C61
:1001E000F528861F5421061F6C210B108B10090067
:1001F0008E080319012983164030810683128D0968
:1002000002291322C4228E1D07290D1C0A29140855
:1002100001230B29F822F6220E1E10290D1C13298A
:1002200013084B211529B13017238E1E19290D1CD7
:100230001F29F62220300123120808232129B1307A
:100240001723C6220E1D26290D1C29291508422117
:100250002B29B13017238E1C2F290D1C322916088B
:1002600001233329F8223A30D7220E1C39290D1CDC
:100270003C29170808233D29F8223A30D7221808CC
:1002800008230800073C031847290130950015088A
:10029000BA2017230800123C03185029013093009C
:1002A0001308C320172308006922861B68298D01C3
:1002B0000E1863298E08031D60298E16980168297F
:1002C00003108E0C68298316011383128E013722C6
:1002D0000221861F682908006922061B81298E1ABF
:1002E000AE210E1AA4218E199A210E1992218E1870
:1002F0008A210E188221FF308D0002216322061F01
:100300006C290800970A1708B6219700593C031C6E
:1003100097010800960A1608B6219600233C031C94
:1003200096010800950A1508073C03189929013021
:1003300095000800940A1408B6219400313C031873
:10034000A329013094000800930A1308B6219300F2
:10035000123C0318AD29013093000800920A1208DC
:10036000B6219200303C031C920108008C000F392A
:10037000093C0318BD2906308C070C0808008316B9
:100380000512831205120800831605168312080051
:100390008316851183128511080083168515831233
:1003A000851DD0290800C421CD215222BF2152220F
:1003B000C82152220800BF21CD215222C42152223D
:1003C0000800900008308F00900D0318E929BF2124
:1003D000EA29C421CD215222C82152228F0BE429BF
:1003E000C421CD215222C8215222080008308F009A
:1003F000C421CD210310051A0314900DC8215222E7
:100400008F0BF929111CBF21CD215222C821522264
:1004100010080800D321D030E1210730E12110304D
:10042000E121DB2108001110D321D030E12100307F
:10043000E121DB21D321D130E121F6219800F62101
:100440009700F6219600F6219500F6219400F621FA
:1004500093001114F6219200DB2108000130940072
:100460009300950004309200960197019801D321E2
:10047000D030E1210030E1211808E1211708E12105
:100480001608E1211508E1211408E1211308E121F2
:100490001208E121DB21080000000000000000003C
:1004A0000000000008000000A4305F2A0000403077
:1004B0005F2A1F305F2A00000E305F2A0530990046
:1004C000990B602A0800C830722A6430722A3230D0
:1004D000722A1430722A0A30722A0530722A0230C7
:1004E000722A01309A00F93099000000990B752AA0
:1004F0009A0B732A0800C830862A6430862A323064
:10050000862A1430862A0A30862A05309B006430F9
:100510009A00F93099000000990B8B2A9A0B892ACE
:100520009B0B872A0800831605100511851083127E
:1005300085100511051069223030AB226D22303054
:10054000AB2256223030AB222030AB22D422D22232
:10055000D022C2220800F0399C0006080F399C0402
:10056000831606089E000F30860583121C0886003D
:1005700005150511051C6F225B2283161E088600D7
:10058000831208000630D52A8030D52AC030D52AFB
:100590008038D52AC038D52A0830D52A0E30D52A39
:1005A0000C30D52A0130D52A28300510D92A051457
:1005B000DE229D00AB221D0EAB2208009C00F13C08
:1005C000031DE52AEE309C00F22A1C08D13C031DD5
:1005D000EC2AEE309C00F22A1C08BA3C031DF22AD9
:1005E000DF309C001C0808001030FB2A0130FB2A79
:1005F0000230FB2A03309F002030D7229F0BFC2AB9
:100600000800A000F039031D092B2030D7220B2B46
:10061000A000200E0C2320080F399F00093C031C6A
:10062000142B1F08303E162B1F08373ED72AA10077
:100630000530A102A10321080520A200A208031988
:10064000242BD722A10A1B2B0800A1000530A102F0
:10065000A103A301D22210302302031D342B6322F5
:1006600063220F30A102292B21080520A200A20835
:0E06700003193E2BD722A30AA10A2B2B080048
:02400E00F13F80
:00000001FF
