:020000040000FA
:020000000528D1
:080008001428A22083168610C3
:100010000730810083123D3081000A308C00A0300F
:100020008B002A30882011288D00030E8E00831249
:100030003D3081008C0B23280A308C008618222842
:100040008614232886100E0E83008D0E0D0E0B11C4
:100050000900820720342034203420342034203416
:1000600020342034203420342034203420342034F0
:100070002034203445347334743475346434693432
:10008000613420342234443465347334613472343E
:1000900072346F346C346C346F34203464346534AF
:1000A0002034503472346F346434753463347434AF
:1000B0006F347334203445346C34653463347434B1
:1000C00072346F346E34693463346F347334223471
:1000D0002E34203420342034203420342034203472
:1000E0002034203420342034203420342034203470
:1000F000203400348F0029308F028F030F0829200D
:100100009000900803198728E6208F0A7E280800AF
:100110008F0029308F028F039101E12010301102EE
:10012000031D97283D213D210F308F028C280F0899
:100130002920900090080319A128E620910A8F0A2F
:100140008E2808008316051005118510831285106E
:100150000511051043213030BA2047213030BA2034
:1001600030213030BA202030BA20E320E120DF20D7
:10017000D1200800F039920006080F399204831646
:10018000060894000F3086058312120886000515B4
:100190000511051C49213521831614088600831298
:1001A00008000630E4288030E428C030E428803895
:1001B000E428C038E4280830E4280E30E4280C3065
:1001C000E4280130E42828300510E8280514ED2043
:1001D0009300BA20130EBA2008009200F13C031DD0
:1001E000F428EE30920001291208D13C031DFB28AF
:1001F000EE30920001291208BA3C031D0129DF30BC
:1002000092001208080010300A2901300A29023031
:100210000A29033095002030E620950B0B290800B1
:100220009600F039031D18292030E6201A2996007F
:10023000160E1B2116080F399500093C031C2329B3
:100240001508303E25291508373EE6280000000035
:10025000000000000000000008000000A430392960
:100260000000403039291F30392900000E3039296B
:1002700005309700970B3A290800C8304C296430A4
:100280004C2932304C2914304C290A304C29053085
:100290004C2902304C2901309800F93097000000B9
:1002A000970B4F29980B4D290800C83060296430FE
:1002B000602932306029143060290A306029053005
:1002C000990064309800F93097000000970B652979
:0A02D000980B6329990B61290800BF
:02400E00F13F80
:00000001FF
