:020000040000FA
:020000000528D1
:0800080010288316061486106F
:100010008113011383128C0190308B0063000E2832
:100020003D2006181E288C0A03300C02031C1E28D3
:100030008C0186181D2886141E2886108B10090036
:1000400000000000000000000000000008000000A8
:10005000A43033280000403033281F3033280000FC
:100060000E30332805308D008D0B34280800C83041
:1000700046286430462832304628143046280A3054
:100080004628053046280230462801308E00F930D7
:100090008D0000008D0B49288E0B47280800C830C2
:1000A0005A2864305A2832305A2814305A280A30D4
:1000B0005A2805308F0064308E00F9308D00000022
:0E00C0008D0B5F288E0B5D288F0B5B280800D0
:02400E00F13F80
:00000001FF
