:020000040000FA
:020000001728BF
:080008002C2882074534643402
:10001000693474346F347234693461346C3420342C
:100020002034523461342D344D3461340034F120A5
:100030000630752183160730810086170617831254
:1000400092018C018D018E018F0190013D30810064
:10005000A8308B009B202B280B1937200B1C342831
:10006000861F9820061F6E200B100B110900B92067
:10007000BC2000003D3081007B20031C51289208E9
:100080000319452801309106502811148120031CC2
:1000900050288620031C50288C20031C50289220B6
:1000A0005220080004302821921C5828111C5C287A
:1000B0000C089D215F215D2856213A303521121C04
:1000C0006328111C67280D089D2166216828562188
:1000D0003A3035210E089D2166210800C720061BF5
:1000E0007A2811149218922012188C205220C120C4
:1000F000061F6E280800900A0A30100203189001AB
:1001000008008F0A03140F1C031008008E0A3C30ED
:100110000E0203188E0108008D0A3C300D020318F0
:100120008D0108008C0A18300C0203188C0108009D
:10013000C720861BA62811109208031DA42892141C
:100140008E018F019001A6280310920C5220861F69
:10015000A6280800000000000000000000000000C9
:1001600008000000A430BD2800004030BD281F302A
:10017000BD2800000E30BD2805309300930BBE282B
:100180000800C830D0286430D0283230D02814304D
:10019000D0280A30D0280530D0280230D0280130AD
:1001A0009400F93093000000930BD328940BD128CE
:1001B0000800C830E4286430E4283230E4281430E1
:1001C000E4280A30E4280530950064309400F930C2
:1001D00093000000930BE928940BE728950BE52882
:1001E000080083160510051185108312851005116E
:1001F0000510C72030300921CB2030300921B42030
:100200003030092120300921322130212E212021B6
:100210000800F039960006080F3996048316060880
:1002200098000F3086058312160886000515051103
:10023000051CCD20B92083161808860083120800FB
:100240000630332980303329C030332980383329B0
:10025000C0383329083033290E3033290C30332984
:100260000130332928300510372905143C21970027
:100270000921170E092108009600F13C031D4329AE
:10028000EE30960050291608D13C031D4A29EE3065
:10029000960050291608BA3C031D5029DF309600FD
:1002A00016080800103059290130592902305929FF
:1002B0000330990020303521990B5A2908009A0003
:1002C000F039031D67292030352169299A001A0E5B
:1002D0006A211A080F399900093C031C7229190870
:1002E000303E74291908373E35299B0005309B02A2
:1002F0009B031B0805209C009C08031982293521BB
:100300009B0A792908009B0005309B029B039D01F5
:10031000302110301D02031D9229C120C1200F3051
:100320009B0287291B0805209C009C0803199C2917
:1003300035219D0A9B0A892908009E019F01A00082
:100340000A302002031CAD29A0009F0A0A301F02B8
:10035000031CA0299F019E0AA0291F0E2007080048
:02400E00F13F80
:00000001FF
