:020000040000FA
:100000001B208316051683128C010D20051E092066
:100010000628BC20051A14281520073050200C088B
:10002000E6208920051E122808008C0A0C08063CD0
:10003000031C8C010800831605100511851083121E
:10004000851005110510BC2030303320C020303021
:100050003320A92030303320203033205C205A2038
:1000600058204A200800F0398D0006080F398D0409
:10007000831606088F000F30860583120D08860050
:1000800005150511051CC220AE2083160F08860039
:100090008312080006305D2880305D28C0305D285E
:1000A00080385D28C0385D2808305D280E305D2816
:1000B0000C305D2801305D282830051061280514BA
:1000C00066208E0033200E0E332008008D00F13C98
:1000D000031D6D28EE308D007A280D08D13C031DDC
:1000E0007428EE308D007A280D08BA3C031D7A285A
:1000F000DF308D000D080800103083280130832880
:10010000023083280330900020305F20900B842839
:1001100008009100F039031D912820305F209328BA
:100120009100110E942011080F399000093C031C16
:100130009C281008303E9E281008373E5F2800009B
:100140000000000000000000000008000000A430D3
:10015000B22800004030B2281F30B22800000E3014
:10016000B22805309200920BB3280800C830C52889
:100170006430C5283230C5281430C5280A30C52857
:100180000530C5280230C52801309300F9309200AF
:100190000000920BC828930BC6280800C830D92845
:1001A0006430D9283230D9281430D9280A30D928D7
:1001B0000530940064309300F93092000000920BF7
:1001C000DE28930BDC28940BDA28080095019601B1
:1001D00097000A301702031CF6289700960A0A3087
:1001E0001602031CE9289601950AE928160E17073E
:0201F000080005
:02400E00F13F80
:00000001FF
