:020000040000FA
:1000000083160F3085008601831205080F398E0094
:1000100003191C280A3C03191E28031C1C288D00E8
:100020000E088C001230860046208C0B14288601A6
:1000300046208D0B182820288601202812308600A3
:10004000052800000000000000000000000008007B
:100050000000A43034280000403034281F303428F9
:1000600000000E30342805308F008F0B3528080033
:10007000C830472864304728323047281430472892
:100080000A304728053047280230472801309000C1
:10009000F9308F0000008F0B4A28900B4828080089
:1000A000C8305B2864305B2832305B2814305B2812
:1000B0000A305B280530910064309000F9308F00E1
:1000C00000008F0B6028900B5E28910B5C280800C5
:02400E00F13F80
:00000001FF
