:020000040000FA
:1000000083168601831202308D000C308C0027206D
:100010008C0B07288D0B052801308E000C308C00CE
:1000200016208C0B10288E0B0E2803283130382018
:1000300035303820343038203630382032303820CF
:100040003A303820383038203930382008003930FC
:100050003820383038203A303820323038203630A6
:1000600038203430382035303820313038200800FE
:10007000860056200800000000000000000000007C
:10008000000008000000A4304E28000040304E2838
:100090001F304E2800000E304E2805308F008F0B89
:1000A0004F280800C8306128643061283230612848
:1000B000143061280A306128053061280230612837
:1000C00001309000F9308F0000008F0B6428900BF6
:1000D00062280800C83075286430752832307528C9
:1000E000143075280A30752805309100643090006E
:1000F000F9308F0000008F0B7A28900B7828910B35
:040100007628080055
:02400E00F13F80
:00000001FF
