:020000040000FA
:020000001028C6
:080008003528820700340A3498
:1000100014341E34283432343C34463450345A3488
:1000200083160612061086101F30850001308100ED
:1000300083120612051A1F2806148610212806109E
:10004000861405080F398D00031930280A3C03195E
:100050003228031C30280D088C00A0308B00342877
:100060000612332806168B011A288F00030E900003
:1000700083120B3081008E0B4728061A4328061680
:100080000C088E00472806120C080A3C8E00100E41
:0C00900083008F0E0F0E0B100B110900E7
:02400E00F13F80
:00000001FF
