:020000040000FA
:100000008316860183120314860120202220860D88
:1000100005280000000000000000000000000800AB
:100020000000A4301C28000040301C281F301C2871
:1000300000000E301C2805308C008C0B1D28080099
:10004000C8302F2864302F2832302F2814302F2822
:100050000A302F2805302F2802302F2801308D003C
:10006000F9308C0000008C0B32288D0B30280800F2
:10007000C8304328643043283230432814304328A2
:100080000A30432805308E0064308D00F9308C0032
:1000900000008C0B48288D0B46288E0B4428080046
:02400E00F13F80
:00000001FF
