:020000040000FA
:1000000083168601831224308C008D010D080F2089
:1000100036208600B4208D0A8C0B06280328820720
:1000200020344334493443344C344F345334203433
:1000300046344F3452344D344134543449345634B8
:100040004F345334203444344534203445344C3414
:1000500045344334543452344F344E3449344334A9
:1000600041342E34203420340F39303E8E00203C71
:10007000031900340E08D13C031955340E08BA3C5C
:10008000031963340E085A3C031C80342B300E02D3
:10009000031C8034820746340434403480340034F6
:1000A0003F3406345B344F3466346D347D3407346A
:1000B0007F346734413488340034483400340034A9
:1000C000003477347C3439345E34793471346F34AD
:1000D000763419341E347A343834373454343F3457
:1000E0007334673450346D3478341C343E341D34EA
:1000F00070346E344934000000000000000000003D
:10010000000008000000A4308E28000040308E2837
:100110001F308E2800000E308E2805308F008F0B88
:100120008F280800C830A1286430A1283230A128C7
:100130001430A1280A30A1280530A1280230A128B6
:1001400001309000F9308F0000008F0BA428900B35
:10015000A2280800C830B5286430B5283230B52848
:100160001430B5280A30B52805309100643090006D
:10017000F9308F0000008F0BBA28900BB828910B34
:04018000B628080095
:02400E00F13F80
:00000001FF
