:020000040000FA
:10000000D12093200730BA208821022882070D349E
:10001000203445346E34203465346C342034493413
:100020002E3445342E3453342E3420344934533452
:100030004134413443342034503445345234413413
:100040004C34203464346534203454346F34723486
:10005000723465346A346F346E34203464346534F9
:1000600020344134723464346F347A340D340A34B9
:100070002034203420342034203420347334653448
:100080002034703475346534643465342034653418
:1000900073347434753464346934613472342034A4
:1000A00065346C3420344334693463346C346F34D5
:1000B000203446346F3472346D34613474346934AE
:1000C00076346F340D340A34203420342034203414
:1000D000203420344434453453344134523452347F
:1000E0004F344C344C344F34203464346534203431
:1000F000503452344F3444345534433454344F34F0
:100100005334203445344C3445344334543452341D
:100110004F344E34493443344F3453342E340A343C
:100120000A340A3400348316851505128312080038
:1001300008308C0085199A286221642103108519E2
:1001400003148D0C62218C0B9E285F210D08080082
:10015000303E8D0008308C00051262218D0C031C8E
:10016000B3280516B428051262218C0BAE2805169B
:100170005F2108008E0006308E028E030E080620D6
:100180008F008F080319C728A9208E0ABE280800EF
:100190000A3090000A30A920900BCA280D30A920FF
:1001A00008008316051005118510831285100511AE
:1001B000051072213030E92076213030E9205F21AE
:1001C0003030E9202030E920122110210E210021B9
:1001D0000800F039910006080F39910483160608CB
:1001E00093000F308605831211088600051505114E
:1001F000051C7821642183161308860083120800E9
:100200000630132980301329C03013298038132970
:10021000C0381329083013290E3013290C30132944
:100220000130132928300510172905141C219200CC
:10023000E920120EE92008009100F13C031D23295A
:10024000EE30910030291108D13C031D2A29EE30EF
:10025000910030291108BA3C031D3029DF3091008C
:1002600011080800103039290130392902303929A4
:100270000330940020301521940B3A290800950092
:10028000F039031D47292030152149299500150E05
:100290004A2115080F399400093C031C52291408FF
:1002A000303E54291408373E152900000000000094
:1002B00000000000000008000000A43068290000D1
:1002C000403068291F30682900000E306829053049
:1002D0009600960B69290800C8307B2964307B2979
:1002E00032307B2914307B290A307B2905307B2969
:1002F00002307B2901309700F93096000000960B00
:100300007E29970B7C290800C8308F2964308F29FB
:1003100032308F2914308F290A308F290530980008
:1003200064309700F93096000000960B9429970BE3
:080330009229980B90290800A6
:02400E00F13F80
:00000001FF
