:020000040000FA
:10000000F2288207203420342034BF345134753430
:100010006934653472346534733420347434723422
:100020006134623461346A3461347234203465344A
:100030006E34203464346F34733420346134F134DA
:100040006F3473343F342E340D340A34BF3451349A
:1000500075346934653472346534733420346134F2
:100060007034723465346E346434653472342034E0
:1000700068346134633465347234203465347334E5
:1000800074346F34733420346D3465346E347334A7
:1000900061346A34653473343F340034203420349E
:1000A000A13450347534653473342034653473347A
:1000B00074347534643469346134203443344934DD
:1000C00043344C344F345334203446344F34523458
:1000D0004D3441345434493456344F34533421343C
:1000E0002E34003445346E34203465346C3420347E
:1000F00049342E3445342E3453342E34203449348C
:100100005334413441344334203450344534523430
:1001100041344C34203464346534203454346F34E6
:100120007234723465346A346F346E34203464341B
:10013000653420344134723464346F347A340D348D
:100140000A342034203473346534203470347534E8
:1001500065346434653420346534733474347534F0
:100160006434693461347234203465346C3420343E
:100170004334693463346C346F34203446346F3420
:1001800072346D3461347434693476346F342034AD
:100190000D340A342034203444344534533441344B
:1001A000523452344F344C344C344F342034643451
:1001B00065342034503452344F344434553443344D
:1001C00054344F345334203445344C344534433460
:1001D000543452344F344E34493443344F3453340E
:1001E0002E3400341A2111210230FB204E30FB2026
:1001F0007230FB20F428032111211F210D3A031D29
:10020000FD28112108008C0001308C028C030C08A1
:1002100001208D008D080319102930218C0A07292F
:1002200008000A308E000A3030218E0B13290D3061
:100230003021080083168515051283120800083046
:100240008F00851921294E2150210310851903148F
:10025000900C4E218F0B25294B2110080800303EB1
:10026000900008308F0005124E21900C031C3A2993
:1002700005163B2905124E218F0B352905164B21FA
:10028000080000000000000000000000000008005E
:100290000000A43054290000403054291F30542954
:1002A00000000E30542905309100910B55290800AB
:1002B000C8306729643067293230672914306729CC
:1002C0000A3067290530672902306729013092001A
:1002D000F93091000000910B6A29920B68290800FF
:1002E000C8307B2964307B2932307B2914307B294C
:1002F0000A307B290530930064309200F930910078
:100300000000910B8029920B7E29930B7C29080019
:02400E00F13F80
:00000001FF
