:020000040000FA
:10000000F2288207203420342034BF345134753430
:100010006934653472346534733420347434723422
:100020006134623461346A3461347234203465344A
:100030006E34203464346F34733420346134F134DA
:100040006F3473343F342E340D340A34BF3451349A
:1000500075346934653472346534733420346134F2
:100060007034723465346E346434653472342034E0
:1000700068346134633465347234203465347334E5
:1000800074346F34733420346D3465346E347334A7
:1000900061346A34653473343F340034203420349E
:1000A000A13450347534653473342034653473347A
:1000B00074347534643469346134203443344934DD
:1000C00043344C344F345334203446344F34523458
:1000D0004D3441345434493456344F34533421343C
:1000E0002E34003445346E34203465346C3420347E
:1000F00049342E3445342E3453342E34203449348C
:100100005334413441344334203450344534523430
:1001100041344C34203464346534203454346F34E6
:100120007234723465346A346F346E34203464341B
:10013000653420344134723464346F347A340D348D
:100140000A342034203473346534203470347534E8
:1001500065346434653420346534733474347534F0
:100160006434693461347234203465346C3420343E
:100170004334693463346C346F34203446346F3420
:1001800072346D3461347434693476346F342034AD
:100190000D340A342034203444344534533441344B
:1001A000523452344F344C344C344F342034643451
:1001B00065342034503452344F344434553443344D
:1001C00054344F345334203445344C344534433460
:1001D000543452344F344E34493443344F3453340E
:1001E0002E34003417210230FA204E30FA207230BB
:1001F000FA20F32800210E21F721F9210E21080011
:100200008C0001308C028C030C0801208D008D08BD
:1002100003190D292D218C0A042908000A308E00AB
:100220000A302D218E0B10290D302D210800831648
:10023000851505128312080008308F0085191E29C4
:10024000CF21D121031085190314900CCF218F0BDE
:100250002229CC2110080800303E900008308F0081
:100260000512CF21900C031C3729051638290512D9
:10027000CF218F0B32290516CC21080083160510DB
:10028000051185108312851005110510DF2130300E
:100290005621E32130305621CC21303056212030F8
:1002A00056217C217A2178216A210800F0399100B9
:1002B00006080F3991048316060893000F3086054F
:1002C0008312110886000515051183161308860090
:1002D0008312080006307D2980307D29C0307D29B9
:1002E00080387D29C0387D2908307D290E307D2950
:1002F0000C307D2901307D29283005108129051415
:10030000892192005621120E5621051CE521D1218A
:1003100008009100F13C031D9029EE3091009D29C9
:100320001108D13C031D9729EE3091009D29110839
:10033000BA3C031D9D29DF309100110808001030E0
:10034000A6290130A6290230A629033094002030C6
:100350007F21940BA72908009500F039031DB429CB
:1003600020307F21B6299500150EB72115080F39C9
:100370009400093C031CBF291408303EC12914080D
:10038000373E7F2900000000000000000000000050
:1003900008000000A430D52900004030D5291F30C6
:1003A000D52900000E30D52905309600960BD629A8
:1003B0000800C830E8296430E8293230E8291430D0
:1003C000E8290A30E8290530E8290230E829013017
:1003D0009700F93096000000960BEB29970BE9295E
:1003E0000800C830FC296430FC293230FC29143064
:1003F000FC290A30FC290530980064309700F93058
:1004000096000000960B012A970BFF29980BFD29F7
:020410000800E2
:02400E00F13F80
:00000001FF
