:020000040000FA
:1000000033200C2011208C0077200C0822200D308A
:1000100022200A3022200228831685150512831219
:10002000080008308D0085191328C420C62003104D
:10003000851903148E0CC4208D0B1728C1200E08BF
:100040000800303E8E0008308D000512C4208E0C52
:10005000031C2C2805162D280512C4208D0B2728DB
:100060000516C1200800831605100511851083129E
:10007000851005110510D42030304B20D8203030A9
:100080004B20C12030304B2020304B207420722078
:10009000702062200800F0398F0006080F398F04A5
:1000A0008316060891000F30860583120F0886001C
:1000B00005150511051CDA20C620831611088600D7
:1000C000831208000630752880307528C0307528E6
:1000D00080387528C0387528083075280E30752886
:1000E0000C30752801307528283005107928051442
:1000F0007E2090004B20100E4B2008008F00F13C1A
:10010000031D8528EE308F0092280F08D13C031D77
:100110008C28EE308F0092280F08BA3C031D9228DD
:10012000DF308F000F08080010309B2801309B281B
:1001300002309B280330920020307720920B9C28BD
:1001400008009300F039031DA92820307720AB2840
:100150009300130EAC2013080F399200093C031CC6
:10016000B4281208303EB6281208373E772800001F
:100170000000000000000000000008000000A430A3
:10018000CA2800004030CA281F30CA2800000E309C
:10019000CA2805309400940BCB280800C830DD280D
:1001A0006430DD283230DD281430DD280A30DD28C7
:1001B0000530DD280230DD2801309500F93094004B
:1001C0000000940BE028950BDE280800C830F128C9
:1001D0006430F1283230F1281430F1280A30F12847
:1001E0000530960064309500F93094000000940BBF
:0C01F000F628950BF428960BF228080066
:02400E00F13F80
:00000001FF
