:020000040000FA
:100000001A208316051683128C010D20051E092067
:100010000628BE20051A1328142007304F200C088C
:10002000E8208B20B82008008C0A0C083B3C031CFD
:100030008C010800831605100511851083128510A8
:1000400005110510BE2030303220C2203030322061
:10005000AB2030303220203032205B205920572016
:1000600049200800F0398D0006080F398D048316E9
:1000700006088F000F3086058312051CC420B020AF
:100080000D0886000515051183160F0886008312DA
:10009000080006305C2880305C28C0305C2880383E
:1000A0005C28C0385C2808305C280E305C280C3096
:1000B0005C2801305C282830051060280514682071
:1000C0008E0032200E0E3220051CC420B020080005
:1000D0008D00F13C031D6F28EE308D007C280D084B
:1000E000D13C031D7628EE308D007C280D08BA3CEB
:1000F000031D7C28DF308D000D0808001030852896
:1001000001308528023085280330900020305E20A1
:10011000900B862808009100F039031D93282030A9
:100120005E2095289100110E962011080F3990003D
:10013000093C031C9E281008303EA0281008373EBA
:100140005E28000000000000000000000000080021
:100150000000A430B42800004030B4281F30B42878
:1001600000000E30B42805309200920BB52808002C
:10017000C830C7286430C7283230C7281430C72891
:100180000A30C7280530C7280230C728013093003D
:10019000F93092000000920BCA28930BC82808007F
:1001A000C830DB286430DB283230DB281430DB2811
:1001B0000A30DB280530940064309300F930920057
:1001C0000000920BE028930BDE28940BDC2808003B
:1001D0009501960197000A301702031CF828970032
:1001E000960A0A301602031CEB289601950AEB28A2
:0601F000160E17070800BF
:02400E00F13F80
:00000001FF
