:020000040000FA
:100000003E200F3009201F3009202E3009202021EA
:100010000128C52022217D200421080082074534C3
:100020007334743475346434693461342034503436
:10003000493443342C3420346534733400346D3403
:1000400075347934203464346934763465347234E8
:100050007434693464346F342E3400344934453494
:1000600053342034493453344134413443342034FC
:1000700050344534523441344C3400348316051026
:100080000511851083128510051105100A213030E5
:1000900056200E2130305620F720303056202030A8
:1000A00056207F207D207B206D200800F0398C00B9
:1000B00006080F398C04831606088E000F3086055B
:1000C0008312051C1021FC200C0886000515051163
:1000D00083160E08860083120800063080288030C0
:1000E0008028C030802880388028C0388028083098
:1000F00080280E3080280C3080280130802828305D
:100100000510842805148C208D0056200D0E5620D5
:10011000051C1021FC2008008C00F13C031D9328D5
:10012000EE308C00A0280C08D13C031D9A28EE303C
:100130008C00A0280C08BA3C031DA028DF308C00DE
:100140000C0808001030A9280130A9280230A9287D
:1001500003308F00203082208F0BAA2808009000E7
:10016000F039031DB72820308220B9289000100EE6
:10017000BA2010080F398F00093C031CC2280F0851
:10018000303EC4280F08373E822891000E3091027D
:10019000910311080E20920092080319D2288220A0
:1001A000910AC928080091000E3091029103930131
:1001B0007D2010301302031DE228042104210F309A
:1001C0009102D72811080E20920092080319EC28FA
:1001D0008220930A910AD92808000000000000003C
:1001E00000000000000008000000A430002900000A
:1001F000403000291F30002900000E300029053052
:100200009400940B01290800C83013296430132985
:1002100032301329143013290A30132905301329D9
:100220000230132901309500F93094000000940B3E
:100230001629950B14290800C8302729643027296E
:1002400032302729143027290A3027290530960013
:1002500064309500F93094000000940B2C29950B24
:080260002A29960B2829080049
:02400E00F13F80
:00000001FF
